{
  "_format": "hh-sol-artifact-1",
  "contractName": "Crowdfunding",
  "sourceName": "contracts/contracts/Crowdfunding.sol",
  "abi": [
    {
      "inputs": [
        {
          "internalType": "address",
          "name": "_rewardTokenAddress",
          "type": "address"
        }
      ],
      "stateMutability": "nonpayable",
      "type": "constructor"
    },
    {
      "inputs": [],
      "name": "ReentrancyGuardReentrantCall",
      "type": "error"
    },
    {
      "anonymous": false,
      "inputs": [
        {
          "indexed": true,
          "internalType": "uint256",
          "name": "campaignId",
          "type": "uint256"
        },
        {
          "indexed": true,
          "internalType": "address",
          "name": "creator",
          "type": "address"
        }
      ],
      "name": "CampaignCancelled",
      "type": "event"
    },
    {
      "anonymous": false,
      "inputs": [
        {
          "indexed": true,
          "internalType": "uint256",
          "name": "campaignId",
          "type": "uint256"
        },
        {
          "indexed": false,
          "internalType": "string",
          "name": "title",
          "type": "string"
        },
        {
          "indexed": true,
          "internalType": "address",
          "name": "creator",
          "type": "address"
        },
        {
          "indexed": false,
          "internalType": "uint256",
          "name": "fundingGoal",
          "type": "uint256"
        },
        {
          "indexed": false,
          "internalType": "uint256",
          "name": "deadline",
          "type": "uint256"
        }
      ],
      "name": "CampaignCreated",
      "type": "event"
    },
    {
      "anonymous": false,
      "inputs": [
        {
          "indexed": true,
          "internalType": "uint256",
          "name": "campaignId",
          "type": "uint256"
        },
        {
          "indexed": false,
          "internalType": "uint256",
          "name": "totalRaised",
          "type": "uint256"
        },
        {
          "indexed": false,
          "internalType": "bool",
          "name": "goalMet",
          "type": "bool"
        }
      ],
      "name": "CampaignFinalized",
      "type": "event"
    },
    {
      "anonymous": false,
      "inputs": [
        {
          "indexed": true,
          "internalType": "uint256",
          "name": "campaignId",
          "type": "uint256"
        },
        {
          "indexed": true,
          "internalType": "address",
          "name": "contributor",
          "type": "address"
        },
        {
          "indexed": false,
          "internalType": "uint256",
          "name": "amount",
          "type": "uint256"
        }
      ],
      "name": "ContributionMade",
      "type": "event"
    },
    {
      "anonymous": false,
      "inputs": [
        {
          "indexed": true,
          "internalType": "address",
          "name": "recipient",
          "type": "address"
        },
        {
          "indexed": false,
          "internalType": "uint256",
          "name": "amount",
          "type": "uint256"
        }
      ],
      "name": "TokensMinted",
      "type": "event"
    },
    {
      "inputs": [],
      "name": "REWARD_RATE",
      "outputs": [
        {
          "internalType": "uint256",
          "name": "",
          "type": "uint256"
        }
      ],
      "stateMutability": "view",
      "type": "function"
    },
    {
      "inputs": [],
      "name": "campaignCount",
      "outputs": [
        {
          "internalType": "uint256",
          "name": "",
          "type": "uint256"
        }
      ],
      "stateMutability": "view",
      "type": "function"
    },
    {
      "inputs": [
        {
          "internalType": "uint256",
          "name": "",
          "type": "uint256"
        }
      ],
      "name": "campaigns",
      "outputs": [
        {
          "internalType": "uint256",
          "name": "campaignId",
          "type": "uint256"
        },
        {
          "internalType": "string",
          "name": "title",
          "type": "string"
        },
        {
          "internalType": "address",
          "name": "creator",
          "type": "address"
        },
        {
          "internalType": "uint256",
          "name": "fundingGoal",
          "type": "uint256"
        },
        {
          "internalType": "uint256",
          "name": "deadline",
          "type": "uint256"
        },
        {
          "internalType": "uint256",
          "name": "totalRaised",
          "type": "uint256"
        },
        {
          "internalType": "bool",
          "name": "finalized",
          "type": "bool"
        },
        {
          "internalType": "bool",
          "name": "deleted",
          "type": "bool"
        }
      ],
      "stateMutability": "view",
      "type": "function"
    },
    {
      "inputs": [
        {
          "internalType": "uint256",
          "name": "_campaignId",
          "type": "uint256"
        }
      ],
      "name": "cancelCampaign",
      "outputs": [],
      "stateMutability": "nonpayable",
      "type": "function"
    },
    {
      "inputs": [
        {
          "internalType": "uint256",
          "name": "_campaignId",
          "type": "uint256"
        }
      ],
      "name": "contribute",
      "outputs": [],
      "stateMutability": "payable",
      "type": "function"
    },
    {
      "inputs": [
        {
          "internalType": "uint256",
          "name": "",
          "type": "uint256"
        },
        {
          "internalType": "address",
          "name": "",
          "type": "address"
        }
      ],
      "name": "contributions",
      "outputs": [
        {
          "internalType": "uint256",
          "name": "",
          "type": "uint256"
        }
      ],
      "stateMutability": "view",
      "type": "function"
    },
    {
      "inputs": [
        {
          "internalType": "string",
          "name": "_title",
          "type": "string"
        },
        {
          "internalType": "uint256",
          "name": "_goalWei",
          "type": "uint256"
        },
        {
          "internalType": "uint256",
          "name": "_durationSeconds",
          "type": "uint256"
        }
      ],
      "name": "createCampaign",
      "outputs": [],
      "stateMutability": "nonpayable",
      "type": "function"
    },
    {
      "inputs": [
        {
          "internalType": "uint256",
          "name": "_campaignId",
          "type": "uint256"
        }
      ],
      "name": "finalizeCampaign",
      "outputs": [],
      "stateMutability": "nonpayable",
      "type": "function"
    },
    {
      "inputs": [
        {
          "internalType": "uint256",
          "name": "_campaignId",
          "type": "uint256"
        }
      ],
      "name": "getCampaign",
      "outputs": [
        {
          "components": [
            {
              "internalType": "uint256",
              "name": "campaignId",
              "type": "uint256"
            },
            {
              "internalType": "string",
              "name": "title",
              "type": "string"
            },
            {
              "internalType": "address",
              "name": "creator",
              "type": "address"
            },
            {
              "internalType": "uint256",
              "name": "fundingGoal",
              "type": "uint256"
            },
            {
              "internalType": "uint256",
              "name": "deadline",
              "type": "uint256"
            },
            {
              "internalType": "uint256",
              "name": "totalRaised",
              "type": "uint256"
            },
            {
              "internalType": "bool",
              "name": "finalized",
              "type": "bool"
            },
            {
              "internalType": "bool",
              "name": "deleted",
              "type": "bool"
            }
          ],
          "internalType": "struct Crowdfunding.Campaign",
          "name": "",
          "type": "tuple"
        }
      ],
      "stateMutability": "view",
      "type": "function"
    },
    {
      "inputs": [],
      "name": "rewardToken",
      "outputs": [
        {
          "internalType": "contract RewardToken",
          "name": "",
          "type": "address"
        }
      ],
      "stateMutability": "view",
      "type": "function"
    }
  ],
  "bytecode": "0x60806040523480156200001157600080fd5b5060405162002185380380620021858339818101604052810190620000379190620000f1565b600160008190555080600160006101000a81548173ffffffffffffffffffffffffffffffffffffffff021916908373ffffffffffffffffffffffffffffffffffffffff1602179055505062000123565b600080fd5b600073ffffffffffffffffffffffffffffffffffffffff82169050919050565b6000620000b9826200008c565b9050919050565b620000cb81620000ac565b8114620000d757600080fd5b50565b600081519050620000eb81620000c0565b92915050565b6000602082840312156200010a576200010962000087565b5b60006200011a84828501620000da565b91505092915050565b61205280620001336000396000f3fe6080604052600436106100915760003560e01c80635997bb37116100595780635997bb37146101a65780636b5ca27d146101d15780637274e30d146101fa578063c1cbbca714610225578063f7c618c11461024157610091565b8063141961bc146100965780633020580b146100da5780633d891f591461010357806345598b4a146101405780635598f8cc14610169575b600080fd5b3480156100a257600080fd5b506100bd60048036038101906100b89190611022565b61026c565b6040516100d198979695949392919061114a565b60405180910390f35b3480156100e657600080fd5b5061010160048036038101906100fc9190611304565b610376565b005b34801561010f57600080fd5b5061012a6004803603810190610125919061139f565b6105b7565b60405161013791906113df565b60405180910390f35b34801561014c57600080fd5b5061016760048036038101906101629190611022565b6105dc565b005b34801561017557600080fd5b50610190600480360381019061018b9190611022565b6107d5565b60405161019d9190611521565b60405180910390f35b3480156101b257600080fd5b506101bb610949565b6040516101c891906113df565b60405180910390f35b3480156101dd57600080fd5b506101f860048036038101906101f39190611022565b61094e565b005b34801561020657600080fd5b5061020f610bad565b60405161021c91906113df565b60405180910390f35b61023f600480360381019061023a9190611022565b610bb3565b005b34801561024d57600080fd5b50610256610f03565b60405161026391906115a2565b60405180910390f35b6003602052806000526040600020600091509050806000015490806001018054610295906115ec565b80601f01602080910402602001604051908101604052809291908181526020018280546102c1906115ec565b801561030e5780601f106102e35761010080835404028352916020019161030e565b820191906000526020600020905b8154815290600101906020018083116102f157829003601f168201915b5050505050908060020160009054906101000a900473ffffffffffffffffffffffffffffffffffffffff16908060030154908060040154908060050154908060060160009054906101000a900460ff16908060060160019054906101000a900460ff16905088565b600082116103b9576040517f08c379a00000000000000000000000000000000000000000000000000000000081526004016103b090611669565b60405180910390fd5b600081116103fc576040517f08c379a00000000000000000000000000000000000000000000000000000000081526004016103f3906116d5565b60405180910390fd5b60006002549050600082426104119190611724565b90506040518061010001604052808381526020018681526020013373ffffffffffffffffffffffffffffffffffffffff16815260200185815260200182815260200160008152602001600015158152602001600015158152506003600084815260200190815260200160002060008201518160000155602082015181600101908161049c91906118fa565b5060408201518160020160006101000a81548173ffffffffffffffffffffffffffffffffffffffff021916908373ffffffffffffffffffffffffffffffffffffffff160217905550606082015181600301556080820151816004015560a0820151816005015560c08201518160060160006101000a81548160ff02191690831515021790555060e08201518160060160016101000a81548160ff02191690831515021790555090505060026000815480929190610558906119cc565b91905055503373ffffffffffffffffffffffffffffffffffffffff16827f2e4be7f0a0275b06869815699165e220352ac35bdea8c927565a098fa77dffb68787856040516105a893929190611a14565b60405180910390a35050505050565b6004602052816000526040600020602052806000526040600020600091509150505481565b60006003600083815260200190815260200160002090508060020160009054906101000a900473ffffffffffffffffffffffffffffffffffffffff1673ffffffffffffffffffffffffffffffffffffffff163373ffffffffffffffffffffffffffffffffffffffff1614610685576040517f08c379a000000000000000000000000000000000000000000000000000000000815260040161067c90611a9e565b60405180910390fd5b8060060160009054906101000a900460ff16156106d7576040517f08c379a00000000000000000000000000000000000000000000000000000000081526004016106ce90611b0a565b60405180910390fd5b8060060160019054906101000a900460ff1615610729576040517f08c379a000000000000000000000000000000000000000000000000000000000815260040161072090611b76565b60405180910390fd5b6000816005015414610770576040517f08c379a000000000000000000000000000000000000000000000000000000000815260040161076790611c08565b60405180910390fd5b60018160060160016101000a81548160ff0219169083151502179055503373ffffffffffffffffffffffffffffffffffffffff16827f844c792f3d122ddfe76f9173cd5b48de3087f78395e0f62b94f9d471c991dcb260405160405180910390a35050565b6107dd610f79565b600360008381526020019081526020016000206040518061010001604052908160008201548152602001600182018054610816906115ec565b80601f0160208091040260200160405190810160405280929190818152602001828054610842906115ec565b801561088f5780601f106108645761010080835404028352916020019161088f565b820191906000526020600020905b81548152906001019060200180831161087257829003601f168201915b505050505081526020016002820160009054906101000a900473ffffffffffffffffffffffffffffffffffffffff1673ffffffffffffffffffffffffffffffffffffffff1673ffffffffffffffffffffffffffffffffffffffff1681526020016003820154815260200160048201548152602001600582015481526020016006820160009054906101000a900460ff161515151581526020016006820160019054906101000a900460ff1615151515815250509050919050565b606481565b610956610f29565b60006003600083815260200190815260200160002090508060060160019054906101000a900460ff16156109bf576040517f08c379a00000000000000000000000000000000000000000000000000000000081526004016109b690611c74565b60405180910390fd5b8060040154421015610a06576040517f08c379a00000000000000000000000000000000000000000000000000000000081526004016109fd90611ce0565b60405180910390fd5b8060060160009054906101000a900460ff1615610a58576040517f08c379a0000000000000000000000000000000000000000000000000000000008152600401610a4f90611b0a565b60405180910390fd5b60018160060160006101000a81548160ff021916908315150217905550600081600501541115610b585760008160020160009054906101000a900473ffffffffffffffffffffffffffffffffffffffff1673ffffffffffffffffffffffffffffffffffffffff168260050154604051610ad090611d31565b60006040518083038185875af1925050503d8060008114610b0d576040519150601f19603f3d011682016040523d82523d6000602084013e610b12565b606091505b5050905080610b56576040517f08c379a0000000000000000000000000000000000000000000000000000000008152600401610b4d90611d92565b60405180910390fd5b505b817f58d612671e6b4848a067857f6d94e86ccf9b5e3c3938e0367f7b3e4bbacf26528260050154836003015484600501541015604051610b99929190611db2565b60405180910390a250610baa610f6f565b50565b60025481565b610bbb610f29565b60006003600083815260200190815260200160002090508060060160019054906101000a900460ff1615610c24576040517f08c379a0000000000000000000000000000000000000000000000000000000008152600401610c1b90611c74565b60405180910390fd5b80600401544210610c6a576040517f08c379a0000000000000000000000000000000000000000000000000000000008152600401610c6190611e27565b60405180910390fd5b8060060160009054906101000a900460ff1615610cbc576040517f08c379a0000000000000000000000000000000000000000000000000000000008152600401610cb390611e93565b60405180910390fd5b60003411610cff576040517f08c379a0000000000000000000000000000000000000000000000000000000008152600401610cf690611f25565b60405180910390fd5b34816005016000828254610d139190611724565b92505081905550346004600084815260200190815260200160002060003373ffffffffffffffffffffffffffffffffffffffff1673ffffffffffffffffffffffffffffffffffffffff1681526020019081526020016000206000828254610d7a9190611724565b925050819055506000606434610d909190611f45565b9050600160009054906101000a900473ffffffffffffffffffffffffffffffffffffffff1673ffffffffffffffffffffffffffffffffffffffff166340c10f1933836040518363ffffffff1660e01b8152600401610def929190611f87565b600060405180830381600087803b158015610e0957600080fd5b505af1925050508015610e1a575060015b610e59576040517f08c379a0000000000000000000000000000000000000000000000000000000008152600401610e5090611ffc565b60405180910390fd5b3373ffffffffffffffffffffffffffffffffffffffff167f3f2c9d57c068687834f0de942a9babb9e5acab57d516d3480a3c16ee165a427382604051610e9f91906113df565b60405180910390a23373ffffffffffffffffffffffffffffffffffffffff16837f0a4a91237423e0a1766a761c7cb029311d8b95d6b1b81db1b949a70c98b4e08e34604051610eee91906113df565b60405180910390a35050610f00610f6f565b50565b600160009054906101000a900473ffffffffffffffffffffffffffffffffffffffff1681565b600260005403610f65576040517f3ee5aeb500000000000000000000000000000000000000000000000000000000815260040160405180910390fd5b6002600081905550565b6001600081905550565b6040518061010001604052806000815260200160608152602001600073ffffffffffffffffffffffffffffffffffffffff1681526020016000815260200160008152602001600081526020016000151581526020016000151581525090565b6000604051905090565b600080fd5b600080fd5b6000819050919050565b610fff81610fec565b811461100a57600080fd5b50565b60008135905061101c81610ff6565b92915050565b60006020828403121561103857611037610fe2565b5b60006110468482850161100d565b91505092915050565b61105881610fec565b82525050565b600081519050919050565b600082825260208201905092915050565b60005b8381101561109857808201518184015260208101905061107d565b60008484015250505050565b6000601f19601f8301169050919050565b60006110c08261105e565b6110ca8185611069565b93506110da81856020860161107a565b6110e3816110a4565b840191505092915050565b600073ffffffffffffffffffffffffffffffffffffffff82169050919050565b6000611119826110ee565b9050919050565b6111298161110e565b82525050565b60008115159050919050565b6111448161112f565b82525050565b600061010082019050611160600083018b61104f565b8181036020830152611172818a6110b5565b90506111816040830189611120565b61118e606083018861104f565b61119b608083018761104f565b6111a860a083018661104f565b6111b560c083018561113b565b6111c260e083018461113b565b9998505050505050505050565b600080fd5b600080fd5b7f4e487b7100000000000000000000000000000000000000000000000000000000600052604160045260246000fd5b611211826110a4565b810181811067ffffffffffffffff821117156112305761122f6111d9565b5b80604052505050565b6000611243610fd8565b905061124f8282611208565b919050565b600067ffffffffffffffff82111561126f5761126e6111d9565b5b611278826110a4565b9050602081019050919050565b82818337600083830152505050565b60006112a76112a284611254565b611239565b9050828152602081018484840111156112c3576112c26111d4565b5b6112ce848285611285565b509392505050565b600082601f8301126112eb576112ea6111cf565b5b81356112fb848260208601611294565b91505092915050565b60008060006060848603121561131d5761131c610fe2565b5b600084013567ffffffffffffffff81111561133b5761133a610fe7565b5b611347868287016112d6565b93505060206113588682870161100d565b92505060406113698682870161100d565b9150509250925092565b61137c8161110e565b811461138757600080fd5b50565b60008135905061139981611373565b92915050565b600080604083850312156113b6576113b5610fe2565b5b60006113c48582860161100d565b92505060206113d58582860161138a565b9150509250929050565b60006020820190506113f4600083018461104f565b92915050565b61140381610fec565b82525050565b600082825260208201905092915050565b60006114258261105e565b61142f8185611409565b935061143f81856020860161107a565b611448816110a4565b840191505092915050565b61145c8161110e565b82525050565b61146b8161112f565b82525050565b60006101008301600083015161148a60008601826113fa565b50602083015184820360208601526114a2828261141a565b91505060408301516114b76040860182611453565b5060608301516114ca60608601826113fa565b5060808301516114dd60808601826113fa565b5060a08301516114f060a08601826113fa565b5060c083015161150360c0860182611462565b5060e083015161151660e0860182611462565b508091505092915050565b6000602082019050818103600083015261153b8184611471565b905092915050565b6000819050919050565b600061156861156361155e846110ee565b611543565b6110ee565b9050919050565b600061157a8261154d565b9050919050565b600061158c8261156f565b9050919050565b61159c81611581565b82525050565b60006020820190506115b76000830184611593565b92915050565b7f4e487b7100000000000000000000000000000000000000000000000000000000600052602260045260246000fd5b6000600282049050600182168061160457607f821691505b602082108103611617576116166115bd565b5b50919050565b7f476f616c206d7573742062652067726561746572207468616e20300000000000600082015250565b6000611653601b83611069565b915061165e8261161d565b602082019050919050565b6000602082019050818103600083015261168281611646565b9050919050565b7f4475726174696f6e206d7573742062652067726561746572207468616e203000600082015250565b60006116bf601f83611069565b91506116ca82611689565b602082019050919050565b600060208201905081810360008301526116ee816116b2565b9050919050565b7f4e487b7100000000000000000000000000000000000000000000000000000000600052601160045260246000fd5b600061172f82610fec565b915061173a83610fec565b9250828201905080821115611752576117516116f5565b5b92915050565b60008190508160005260206000209050919050565b60006020601f8301049050919050565b600082821b905092915050565b6000600883026117ba7fffffffffffffffffffffffffffffffffffffffffffffffffffffffffffffffff8261177d565b6117c4868361177d565b95508019841693508086168417925050509392505050565b60006117f76117f26117ed84610fec565b611543565b610fec565b9050919050565b6000819050919050565b611811836117dc565b61182561181d826117fe565b84845461178a565b825550505050565b600090565b61183a61182d565b611845818484611808565b505050565b5b818110156118695761185e600082611832565b60018101905061184b565b5050565b601f8211156118ae5761187f81611758565b6118888461176d565b81016020851015611897578190505b6118ab6118a38561176d565b83018261184a565b50505b505050565b600082821c905092915050565b60006118d1600019846008026118b3565b1980831691505092915050565b60006118ea83836118c0565b9150826002028217905092915050565b6119038261105e565b67ffffffffffffffff81111561191c5761191b6111d9565b5b61192682546115ec565b61193182828561186d565b600060209050601f8311600181146119645760008415611952578287015190505b61195c85826118de565b8655506119c4565b601f19841661197286611758565b60005b8281101561199a57848901518255600182019150602085019450602081019050611975565b868310156119b757848901516119b3601f8916826118c0565b8355505b6001600288020188555050505b505050505050565b60006119d782610fec565b91507fffffffffffffffffffffffffffffffffffffffffffffffffffffffffffffffff8203611a0957611a086116f5565b5b600182019050919050565b60006060820190508181036000830152611a2e81866110b5565b9050611a3d602083018561104f565b611a4a604083018461104f565b949350505050565b7f4f6e6c792063726561746f722063616e2063616e63656c000000000000000000600082015250565b6000611a88601783611069565b9150611a9382611a52565b602082019050919050565b60006020820190508181036000830152611ab781611a7b565b9050919050565b7f43616d706169676e20616c72656164792066696e616c697a6564000000000000600082015250565b6000611af4601a83611069565b9150611aff82611abe565b602082019050919050565b60006020820190508181036000830152611b2381611ae7565b9050919050565b7f43616d706169676e20616c72656164792063616e63656c6c6564000000000000600082015250565b6000611b60601a83611069565b9150611b6b82611b2a565b602082019050919050565b60006020820190508181036000830152611b8f81611b53565b9050919050565b7f43616e6e6f742063616e63656c3a2066756e647320616c72656164792072616960008201527f7365640000000000000000000000000000000000000000000000000000000000602082015250565b6000611bf2602383611069565b9150611bfd82611b96565b604082019050919050565b60006020820190508181036000830152611c2181611be5565b9050919050565b7f43616d706169676e20686173206265656e2063616e63656c6c65640000000000600082015250565b6000611c5e601b83611069565b9150611c6982611c28565b602082019050919050565b60006020820190508181036000830152611c8d81611c51565b9050919050565b7f43616d706169676e20686173206e6f7420656e64656420796574000000000000600082015250565b6000611cca601a83611069565b9150611cd582611c94565b602082019050919050565b60006020820190508181036000830152611cf981611cbd565b9050919050565b600081905092915050565b50565b6000611d1b600083611d00565b9150611d2682611d0b565b600082019050919050565b6000611d3c82611d0e565b9150819050919050565b7f5472616e7366657220746f2063726561746f72206661696c6564000000000000600082015250565b6000611d7c601a83611069565b9150611d8782611d46565b602082019050919050565b60006020820190508181036000830152611dab81611d6f565b9050919050565b6000604082019050611dc7600083018561104f565b611dd4602083018461113b565b9392505050565b7f43616d706169676e2068617320656e6465640000000000000000000000000000600082015250565b6000611e11601283611069565b9150611e1c82611ddb565b602082019050919050565b60006020820190508181036000830152611e4081611e04565b9050919050565b7f43616d706169676e2069732066696e616c697a65640000000000000000000000600082015250565b6000611e7d601583611069565b9150611e8882611e47565b602082019050919050565b60006020820190508181036000830152611eac81611e70565b9050919050565b7f436f6e747269627574696f6e206d75737420626520677265617465722074686160008201527f6e20300000000000000000000000000000000000000000000000000000000000602082015250565b6000611f0f602383611069565b9150611f1a82611eb3565b604082019050919050565b60006020820190508181036000830152611f3e81611f02565b9050919050565b6000611f5082610fec565b9150611f5b83610fec565b9250828202611f6981610fec565b91508282048414831517611f8057611f7f6116f5565b5b5092915050565b6000604082019050611f9c6000830185611120565b611fa9602083018461104f565b9392505050565b7f546f6b656e206d696e74696e67206661696c6564000000000000000000000000600082015250565b6000611fe6601483611069565b9150611ff182611fb0565b602082019050919050565b6000602082019050818103600083015261201581611fd9565b905091905056fea2646970667358221220d31f8e24b9c625ad325f5962abdc960d788df91ee534feb864ac9590f0059a9964736f6c63430008140033",
  "linkReferences": {},
  "deployedLinkReferences": {}
}