{
  "_format": "hh-sol-artifact-1",
  "contractName": "Crowdfunding",
  "sourceName": "contracts/contracts/Crowdfunding.sol",
  "abi": [
    {
      "inputs": [
        {
          "internalType": "address",
          "name": "_rewardTokenAddress",
          "type": "address"
        }
      ],
      "stateMutability": "nonpayable",
      "type": "constructor"
    },
    {
      "inputs": [],
      "name": "ReentrancyGuardReentrantCall",
      "type": "error"
    },
    {
      "anonymous": false,
      "inputs": [
        {
          "indexed": true,
          "internalType": "uint256",
          "name": "campaignId",
          "type": "uint256"
        },
        {
          "indexed": false,
          "internalType": "string",
          "name": "title",
          "type": "string"
        },
        {
          "indexed": true,
          "internalType": "address",
          "name": "creator",
          "type": "address"
        },
        {
          "indexed": false,
          "internalType": "uint256",
          "name": "fundingGoal",
          "type": "uint256"
        },
        {
          "indexed": false,
          "internalType": "uint256",
          "name": "deadline",
          "type": "uint256"
        }
      ],
      "name": "CampaignCreated",
      "type": "event"
    },
    {
      "anonymous": false,
      "inputs": [
        {
          "indexed": true,
          "internalType": "uint256",
          "name": "campaignId",
          "type": "uint256"
        },
        {
          "indexed": false,
          "internalType": "uint256",
          "name": "totalRaised",
          "type": "uint256"
        },
        {
          "indexed": false,
          "internalType": "bool",
          "name": "goalMet",
          "type": "bool"
        }
      ],
      "name": "CampaignFinalized",
      "type": "event"
    },
    {
      "anonymous": false,
      "inputs": [
        {
          "indexed": true,
          "internalType": "uint256",
          "name": "campaignId",
          "type": "uint256"
        },
        {
          "indexed": true,
          "internalType": "address",
          "name": "contributor",
          "type": "address"
        },
        {
          "indexed": false,
          "internalType": "uint256",
          "name": "amount",
          "type": "uint256"
        }
      ],
      "name": "ContributionMade",
      "type": "event"
    },
    {
      "anonymous": false,
      "inputs": [
        {
          "indexed": true,
          "internalType": "address",
          "name": "recipient",
          "type": "address"
        },
        {
          "indexed": false,
          "internalType": "uint256",
          "name": "amount",
          "type": "uint256"
        }
      ],
      "name": "TokensMinted",
      "type": "event"
    },
    {
      "inputs": [],
      "name": "REWARD_RATE",
      "outputs": [
        {
          "internalType": "uint256",
          "name": "",
          "type": "uint256"
        }
      ],
      "stateMutability": "view",
      "type": "function"
    },
    {
      "inputs": [],
      "name": "campaignCount",
      "outputs": [
        {
          "internalType": "uint256",
          "name": "",
          "type": "uint256"
        }
      ],
      "stateMutability": "view",
      "type": "function"
    },
    {
      "inputs": [
        {
          "internalType": "uint256",
          "name": "",
          "type": "uint256"
        }
      ],
      "name": "campaigns",
      "outputs": [
        {
          "internalType": "uint256",
          "name": "campaignId",
          "type": "uint256"
        },
        {
          "internalType": "string",
          "name": "title",
          "type": "string"
        },
        {
          "internalType": "address",
          "name": "creator",
          "type": "address"
        },
        {
          "internalType": "uint256",
          "name": "fundingGoal",
          "type": "uint256"
        },
        {
          "internalType": "uint256",
          "name": "deadline",
          "type": "uint256"
        },
        {
          "internalType": "uint256",
          "name": "totalRaised",
          "type": "uint256"
        },
        {
          "internalType": "bool",
          "name": "finalized",
          "type": "bool"
        }
      ],
      "stateMutability": "view",
      "type": "function"
    },
    {
      "inputs": [
        {
          "internalType": "uint256",
          "name": "_campaignId",
          "type": "uint256"
        }
      ],
      "name": "contribute",
      "outputs": [],
      "stateMutability": "payable",
      "type": "function"
    },
    {
      "inputs": [
        {
          "internalType": "uint256",
          "name": "",
          "type": "uint256"
        },
        {
          "internalType": "address",
          "name": "",
          "type": "address"
        }
      ],
      "name": "contributions",
      "outputs": [
        {
          "internalType": "uint256",
          "name": "",
          "type": "uint256"
        }
      ],
      "stateMutability": "view",
      "type": "function"
    },
    {
      "inputs": [
        {
          "internalType": "string",
          "name": "_title",
          "type": "string"
        },
        {
          "internalType": "uint256",
          "name": "_goalWei",
          "type": "uint256"
        },
        {
          "internalType": "uint256",
          "name": "_durationSeconds",
          "type": "uint256"
        }
      ],
      "name": "createCampaign",
      "outputs": [],
      "stateMutability": "nonpayable",
      "type": "function"
    },
    {
      "inputs": [
        {
          "internalType": "uint256",
          "name": "_campaignId",
          "type": "uint256"
        }
      ],
      "name": "finalizeCampaign",
      "outputs": [],
      "stateMutability": "nonpayable",
      "type": "function"
    },
    {
      "inputs": [
        {
          "internalType": "uint256",
          "name": "_campaignId",
          "type": "uint256"
        }
      ],
      "name": "getCampaign",
      "outputs": [
        {
          "components": [
            {
              "internalType": "uint256",
              "name": "campaignId",
              "type": "uint256"
            },
            {
              "internalType": "string",
              "name": "title",
              "type": "string"
            },
            {
              "internalType": "address",
              "name": "creator",
              "type": "address"
            },
            {
              "internalType": "uint256",
              "name": "fundingGoal",
              "type": "uint256"
            },
            {
              "internalType": "uint256",
              "name": "deadline",
              "type": "uint256"
            },
            {
              "internalType": "uint256",
              "name": "totalRaised",
              "type": "uint256"
            },
            {
              "internalType": "bool",
              "name": "finalized",
              "type": "bool"
            }
          ],
          "internalType": "struct Crowdfunding.Campaign",
          "name": "",
          "type": "tuple"
        }
      ],
      "stateMutability": "view",
      "type": "function"
    },
    {
      "inputs": [],
      "name": "rewardToken",
      "outputs": [
        {
          "internalType": "contract RewardToken",
          "name": "",
          "type": "address"
        }
      ],
      "stateMutability": "view",
      "type": "function"
    }
  ],
  "bytecode": "0x60806040523480156200001157600080fd5b5060405162001c5738038062001c578339818101604052810190620000379190620000f1565b600160008190555080600160006101000a81548173ffffffffffffffffffffffffffffffffffffffff021916908373ffffffffffffffffffffffffffffffffffffffff1602179055505062000123565b600080fd5b600073ffffffffffffffffffffffffffffffffffffffff82169050919050565b6000620000b9826200008c565b9050919050565b620000cb81620000ac565b8114620000d757600080fd5b50565b600081519050620000eb81620000c0565b92915050565b6000602082840312156200010a576200010962000087565b5b60006200011a84828501620000da565b91505092915050565b611b2480620001336000396000f3fe6080604052600436106100865760003560e01c80635997bb37116100595780635997bb37146101715780636b5ca27d1461019c5780637274e30d146101c5578063c1cbbca7146101f0578063f7c618c11461020c57610086565b8063141961bc1461008b5780633020580b146100ce5780633d891f59146100f75780635598f8cc14610134575b600080fd5b34801561009757600080fd5b506100b260048036038101906100ad9190610ced565b610237565b6040516100c59796959493929190610e15565b60405180910390f35b3480156100da57600080fd5b506100f560048036038101906100f09190610fc0565b61032e565b005b34801561010357600080fd5b5061011e6004803603810190610119919061105b565b610545565b60405161012b919061109b565b60405180910390f35b34801561014057600080fd5b5061015b60048036038101906101569190610ced565b61056a565b60405161016891906111c9565b60405180910390f35b34801561017d57600080fd5b506101866106c2565b604051610193919061109b565b60405180910390f35b3480156101a857600080fd5b506101c360048036038101906101be9190610ced565b6106c7565b005b3480156101d157600080fd5b506101da6108d4565b6040516101e7919061109b565b60405180910390f35b61020a60048036038101906102059190610ced565b6108da565b005b34801561021857600080fd5b50610221610bd8565b60405161022e919061124a565b60405180910390f35b600360205280600052604060002060009150905080600001549080600101805461026090611294565b80601f016020809104026020016040519081016040528092919081815260200182805461028c90611294565b80156102d95780601f106102ae576101008083540402835291602001916102d9565b820191906000526020600020905b8154815290600101906020018083116102bc57829003601f168201915b5050505050908060020160009054906101000a900473ffffffffffffffffffffffffffffffffffffffff16908060030154908060040154908060050154908060060160009054906101000a900460ff16905087565b60008211610371576040517f08c379a000000000000000000000000000000000000000000000000000000000815260040161036890611311565b60405180910390fd5b600081116103b4576040517f08c379a00000000000000000000000000000000000000000000000000000000081526004016103ab9061137d565b60405180910390fd5b60006002549050600082426103c991906113cc565b90506040518060e001604052808381526020018681526020013373ffffffffffffffffffffffffffffffffffffffff16815260200185815260200182815260200160008152602001600015158152506003600084815260200190815260200160002060008201518160000155602082015181600101908161044a91906115a2565b5060408201518160020160006101000a81548173ffffffffffffffffffffffffffffffffffffffff021916908373ffffffffffffffffffffffffffffffffffffffff160217905550606082015181600301556080820151816004015560a0820151816005015560c08201518160060160006101000a81548160ff021916908315150217905550905050600260008154809291906104e690611674565b91905055503373ffffffffffffffffffffffffffffffffffffffff16827f2e4be7f0a0275b06869815699165e220352ac35bdea8c927565a098fa77dffb6878785604051610536939291906116bc565b60405180910390a35050505050565b6004602052816000526040600020602052806000526040600020600091509150505481565b610572610c4e565b600360008381526020019081526020016000206040518060e0016040529081600082015481526020016001820180546105aa90611294565b80601f01602080910402602001604051908101604052809291908181526020018280546105d690611294565b80156106235780601f106105f857610100808354040283529160200191610623565b820191906000526020600020905b81548152906001019060200180831161060657829003601f168201915b505050505081526020016002820160009054906101000a900473ffffffffffffffffffffffffffffffffffffffff1673ffffffffffffffffffffffffffffffffffffffff1673ffffffffffffffffffffffffffffffffffffffff1681526020016003820154815260200160048201548152602001600582015481526020016006820160009054906101000a900460ff1615151515815250509050919050565b606481565b6106cf610bfe565b6000600360008381526020019081526020016000209050806004015442101561072d576040517f08c379a000000000000000000000000000000000000000000000000000000000815260040161072490611746565b60405180910390fd5b8060060160009054906101000a900460ff161561077f576040517f08c379a0000000000000000000000000000000000000000000000000000000008152600401610776906117b2565b60405180910390fd5b60018160060160006101000a81548160ff02191690831515021790555060008160050154111561087f5760008160020160009054906101000a900473ffffffffffffffffffffffffffffffffffffffff1673ffffffffffffffffffffffffffffffffffffffff1682600501546040516107f790611803565b60006040518083038185875af1925050503d8060008114610834576040519150601f19603f3d011682016040523d82523d6000602084013e610839565b606091505b505090508061087d576040517f08c379a000000000000000000000000000000000000000000000000000000000815260040161087490611864565b60405180910390fd5b505b817f58d612671e6b4848a067857f6d94e86ccf9b5e3c3938e0367f7b3e4bbacf265282600501548360030154846005015410156040516108c0929190611884565b60405180910390a2506108d1610c44565b50565b60025481565b6108e2610bfe565b60006003600083815260200190815260200160002090508060040154421061093f576040517f08c379a0000000000000000000000000000000000000000000000000000000008152600401610936906118f9565b60405180910390fd5b8060060160009054906101000a900460ff1615610991576040517f08c379a000000000000000000000000000000000000000000000000000000000815260040161098890611965565b60405180910390fd5b600034116109d4576040517f08c379a00000000000000000000000000000000000000000000000000000000081526004016109cb906119f7565b60405180910390fd5b348160050160008282546109e891906113cc565b92505081905550346004600084815260200190815260200160002060003373ffffffffffffffffffffffffffffffffffffffff1673ffffffffffffffffffffffffffffffffffffffff1681526020019081526020016000206000828254610a4f91906113cc565b925050819055506000606434610a659190611a17565b9050600160009054906101000a900473ffffffffffffffffffffffffffffffffffffffff1673ffffffffffffffffffffffffffffffffffffffff166340c10f1933836040518363ffffffff1660e01b8152600401610ac4929190611a59565b600060405180830381600087803b158015610ade57600080fd5b505af1925050508015610aef575060015b610b2e576040517f08c379a0000000000000000000000000000000000000000000000000000000008152600401610b2590611ace565b60405180910390fd5b3373ffffffffffffffffffffffffffffffffffffffff167f3f2c9d57c068687834f0de942a9babb9e5acab57d516d3480a3c16ee165a427382604051610b74919061109b565b60405180910390a23373ffffffffffffffffffffffffffffffffffffffff16837f0a4a91237423e0a1766a761c7cb029311d8b95d6b1b81db1b949a70c98b4e08e34604051610bc3919061109b565b60405180910390a35050610bd5610c44565b50565b600160009054906101000a900473ffffffffffffffffffffffffffffffffffffffff1681565b600260005403610c3a576040517f3ee5aeb500000000000000000000000000000000000000000000000000000000815260040160405180910390fd5b6002600081905550565b6001600081905550565b6040518060e001604052806000815260200160608152602001600073ffffffffffffffffffffffffffffffffffffffff1681526020016000815260200160008152602001600081526020016000151581525090565b6000604051905090565b600080fd5b600080fd5b6000819050919050565b610cca81610cb7565b8114610cd557600080fd5b50565b600081359050610ce781610cc1565b92915050565b600060208284031215610d0357610d02610cad565b5b6000610d1184828501610cd8565b91505092915050565b610d2381610cb7565b82525050565b600081519050919050565b600082825260208201905092915050565b60005b83811015610d63578082015181840152602081019050610d48565b60008484015250505050565b6000601f19601f8301169050919050565b6000610d8b82610d29565b610d958185610d34565b9350610da5818560208601610d45565b610dae81610d6f565b840191505092915050565b600073ffffffffffffffffffffffffffffffffffffffff82169050919050565b6000610de482610db9565b9050919050565b610df481610dd9565b82525050565b60008115159050919050565b610e0f81610dfa565b82525050565b600060e082019050610e2a600083018a610d1a565b8181036020830152610e3c8189610d80565b9050610e4b6040830188610deb565b610e586060830187610d1a565b610e656080830186610d1a565b610e7260a0830185610d1a565b610e7f60c0830184610e06565b98975050505050505050565b600080fd5b600080fd5b7f4e487b7100000000000000000000000000000000000000000000000000000000600052604160045260246000fd5b610ecd82610d6f565b810181811067ffffffffffffffff82111715610eec57610eeb610e95565b5b80604052505050565b6000610eff610ca3565b9050610f0b8282610ec4565b919050565b600067ffffffffffffffff821115610f2b57610f2a610e95565b5b610f3482610d6f565b9050602081019050919050565b82818337600083830152505050565b6000610f63610f5e84610f10565b610ef5565b905082815260208101848484011115610f7f57610f7e610e90565b5b610f8a848285610f41565b509392505050565b600082601f830112610fa757610fa6610e8b565b5b8135610fb7848260208601610f50565b91505092915050565b600080600060608486031215610fd957610fd8610cad565b5b600084013567ffffffffffffffff811115610ff757610ff6610cb2565b5b61100386828701610f92565b935050602061101486828701610cd8565b925050604061102586828701610cd8565b9150509250925092565b61103881610dd9565b811461104357600080fd5b50565b6000813590506110558161102f565b92915050565b6000806040838503121561107257611071610cad565b5b600061108085828601610cd8565b925050602061109185828601611046565b9150509250929050565b60006020820190506110b06000830184610d1a565b92915050565b6110bf81610cb7565b82525050565b600082825260208201905092915050565b60006110e182610d29565b6110eb81856110c5565b93506110fb818560208601610d45565b61110481610d6f565b840191505092915050565b61111881610dd9565b82525050565b61112781610dfa565b82525050565b600060e08301600083015161114560008601826110b6565b506020830151848203602086015261115d82826110d6565b9150506040830151611172604086018261110f565b50606083015161118560608601826110b6565b50608083015161119860808601826110b6565b5060a08301516111ab60a08601826110b6565b5060c08301516111be60c086018261111e565b508091505092915050565b600060208201905081810360008301526111e3818461112d565b905092915050565b6000819050919050565b600061121061120b61120684610db9565b6111eb565b610db9565b9050919050565b6000611222826111f5565b9050919050565b600061123482611217565b9050919050565b61124481611229565b82525050565b600060208201905061125f600083018461123b565b92915050565b7f4e487b7100000000000000000000000000000000000000000000000000000000600052602260045260246000fd5b600060028204905060018216806112ac57607f821691505b6020821081036112bf576112be611265565b5b50919050565b7f476f616c206d7573742062652067726561746572207468616e20300000000000600082015250565b60006112fb601b83610d34565b9150611306826112c5565b602082019050919050565b6000602082019050818103600083015261132a816112ee565b9050919050565b7f4475726174696f6e206d7573742062652067726561746572207468616e203000600082015250565b6000611367601f83610d34565b915061137282611331565b602082019050919050565b600060208201905081810360008301526113968161135a565b9050919050565b7f4e487b7100000000000000000000000000000000000000000000000000000000600052601160045260246000fd5b60006113d782610cb7565b91506113e283610cb7565b92508282019050808211156113fa576113f961139d565b5b92915050565b60008190508160005260206000209050919050565b60006020601f8301049050919050565b600082821b905092915050565b6000600883026114627fffffffffffffffffffffffffffffffffffffffffffffffffffffffffffffffff82611425565b61146c8683611425565b95508019841693508086168417925050509392505050565b600061149f61149a61149584610cb7565b6111eb565b610cb7565b9050919050565b6000819050919050565b6114b983611484565b6114cd6114c5826114a6565b848454611432565b825550505050565b600090565b6114e26114d5565b6114ed8184846114b0565b505050565b5b81811015611511576115066000826114da565b6001810190506114f3565b5050565b601f8211156115565761152781611400565b61153084611415565b8101602085101561153f578190505b61155361154b85611415565b8301826114f2565b50505b505050565b600082821c905092915050565b60006115796000198460080261155b565b1980831691505092915050565b60006115928383611568565b9150826002028217905092915050565b6115ab82610d29565b67ffffffffffffffff8111156115c4576115c3610e95565b5b6115ce8254611294565b6115d9828285611515565b600060209050601f83116001811461160c57600084156115fa578287015190505b6116048582611586565b86555061166c565b601f19841661161a86611400565b60005b828110156116425784890151825560018201915060208501945060208101905061161d565b8683101561165f578489015161165b601f891682611568565b8355505b6001600288020188555050505b505050505050565b600061167f82610cb7565b91507fffffffffffffffffffffffffffffffffffffffffffffffffffffffffffffffff82036116b1576116b061139d565b5b600182019050919050565b600060608201905081810360008301526116d68186610d80565b90506116e56020830185610d1a565b6116f26040830184610d1a565b949350505050565b7f43616d706169676e20686173206e6f7420656e64656420796574000000000000600082015250565b6000611730601a83610d34565b915061173b826116fa565b602082019050919050565b6000602082019050818103600083015261175f81611723565b9050919050565b7f43616d706169676e20616c72656164792066696e616c697a6564000000000000600082015250565b600061179c601a83610d34565b91506117a782611766565b602082019050919050565b600060208201905081810360008301526117cb8161178f565b9050919050565b600081905092915050565b50565b60006117ed6000836117d2565b91506117f8826117dd565b600082019050919050565b600061180e826117e0565b9150819050919050565b7f5472616e7366657220746f2063726561746f72206661696c6564000000000000600082015250565b600061184e601a83610d34565b915061185982611818565b602082019050919050565b6000602082019050818103600083015261187d81611841565b9050919050565b60006040820190506118996000830185610d1a565b6118a66020830184610e06565b9392505050565b7f43616d706169676e2068617320656e6465640000000000000000000000000000600082015250565b60006118e3601283610d34565b91506118ee826118ad565b602082019050919050565b60006020820190508181036000830152611912816118d6565b9050919050565b7f43616d706169676e2069732066696e616c697a65640000000000000000000000600082015250565b600061194f601583610d34565b915061195a82611919565b602082019050919050565b6000602082019050818103600083015261197e81611942565b9050919050565b7f436f6e747269627574696f6e206d75737420626520677265617465722074686160008201527f6e20300000000000000000000000000000000000000000000000000000000000602082015250565b60006119e1602383610d34565b91506119ec82611985565b604082019050919050565b60006020820190508181036000830152611a10816119d4565b9050919050565b6000611a2282610cb7565b9150611a2d83610cb7565b9250828202611a3b81610cb7565b91508282048414831517611a5257611a5161139d565b5b5092915050565b6000604082019050611a6e6000830185610deb565b611a7b6020830184610d1a565b9392505050565b7f546f6b656e206d696e74696e67206661696c6564000000000000000000000000600082015250565b6000611ab8601483610d34565b9150611ac382611a82565b602082019050919050565b60006020820190508181036000830152611ae781611aab565b905091905056fea2646970667358221220c005ebcc0ac1a7c96e0e9186dfb903fd6d8e36e858de1abc06270bcb3381e49664736f6c63430008140033",
  "linkReferences": {},
  "deployedLinkReferences": {}
}